{
  "_format": "hh-sol-artifact-1",
  "contractName": "Bookverse",
  "sourceName": "contracts/Books.sol",
  "abi": [
    {
      "inputs": [
        {
          "internalType": "string",
          "name": "baseURI",
          "type": "string"
        }
      ],
      "stateMutability": "nonpayable",
      "type": "constructor"
    },
    {
      "anonymous": false,
      "inputs": [
        {
          "indexed": true,
          "internalType": "address",
          "name": "owner",
          "type": "address"
        },
        {
          "indexed": true,
          "internalType": "address",
          "name": "approved",
          "type": "address"
        },
        {
          "indexed": true,
          "internalType": "uint256",
          "name": "tokenId",
          "type": "uint256"
        }
      ],
      "name": "Approval",
      "type": "event"
    },
    {
      "anonymous": false,
      "inputs": [
        {
          "indexed": true,
          "internalType": "address",
          "name": "owner",
          "type": "address"
        },
        {
          "indexed": true,
          "internalType": "address",
          "name": "operator",
          "type": "address"
        },
        {
          "indexed": false,
          "internalType": "bool",
          "name": "approved",
          "type": "bool"
        }
      ],
      "name": "ApprovalForAll",
      "type": "event"
    },
    {
      "anonymous": false,
      "inputs": [
        {
          "indexed": true,
          "internalType": "address",
          "name": "previousOwner",
          "type": "address"
        },
        {
          "indexed": true,
          "internalType": "address",
          "name": "newOwner",
          "type": "address"
        }
      ],
      "name": "OwnershipTransferred",
      "type": "event"
    },
    {
      "anonymous": false,
      "inputs": [
        {
          "indexed": true,
          "internalType": "address",
          "name": "from",
          "type": "address"
        },
        {
          "indexed": true,
          "internalType": "address",
          "name": "to",
          "type": "address"
        },
        {
          "indexed": true,
          "internalType": "uint256",
          "name": "tokenId",
          "type": "uint256"
        }
      ],
      "name": "Transfer",
      "type": "event"
    },
    {
      "inputs": [],
      "name": "MAX_PER_MINT",
      "outputs": [
        {
          "internalType": "uint256",
          "name": "",
          "type": "uint256"
        }
      ],
      "stateMutability": "view",
      "type": "function"
    },
    {
      "inputs": [],
      "name": "MAX_SUPPLY",
      "outputs": [
        {
          "internalType": "uint256",
          "name": "",
          "type": "uint256"
        }
      ],
      "stateMutability": "view",
      "type": "function"
    },
    {
      "inputs": [],
      "name": "PRICE",
      "outputs": [
        {
          "internalType": "uint256",
          "name": "",
          "type": "uint256"
        }
      ],
      "stateMutability": "view",
      "type": "function"
    },
    {
      "inputs": [
        {
          "internalType": "address",
          "name": "to",
          "type": "address"
        },
        {
          "internalType": "uint256",
          "name": "tokenId",
          "type": "uint256"
        }
      ],
      "name": "approve",
      "outputs": [],
      "stateMutability": "nonpayable",
      "type": "function"
    },
    {
      "inputs": [
        {
          "internalType": "address",
          "name": "owner",
          "type": "address"
        }
      ],
      "name": "balanceOf",
      "outputs": [
        {
          "internalType": "uint256",
          "name": "",
          "type": "uint256"
        }
      ],
      "stateMutability": "view",
      "type": "function"
    },
    {
      "inputs": [],
      "name": "baseTokenURI",
      "outputs": [
        {
          "internalType": "string",
          "name": "",
          "type": "string"
        }
      ],
      "stateMutability": "view",
      "type": "function"
    },
    {
      "inputs": [
        {
          "internalType": "uint256",
          "name": "tokenId",
          "type": "uint256"
        }
      ],
      "name": "burn",
      "outputs": [],
      "stateMutability": "nonpayable",
      "type": "function"
    },
    {
      "inputs": [
        {
          "internalType": "uint256",
          "name": "tokenId",
          "type": "uint256"
        }
      ],
      "name": "getApproved",
      "outputs": [
        {
          "internalType": "address",
          "name": "",
          "type": "address"
        }
      ],
      "stateMutability": "view",
      "type": "function"
    },
    {
      "inputs": [
        {
          "internalType": "address",
          "name": "owner",
          "type": "address"
        },
        {
          "internalType": "address",
          "name": "operator",
          "type": "address"
        }
      ],
      "name": "isApprovedForAll",
      "outputs": [
        {
          "internalType": "bool",
          "name": "",
          "type": "bool"
        }
      ],
      "stateMutability": "view",
      "type": "function"
    },
    {
      "inputs": [
        {
          "internalType": "uint256",
          "name": "_count",
          "type": "uint256"
        }
      ],
      "name": "mintNFTs",
      "outputs": [],
      "stateMutability": "payable",
      "type": "function"
    },
    {
      "inputs": [],
      "name": "name",
      "outputs": [
        {
          "internalType": "string",
          "name": "",
          "type": "string"
        }
      ],
      "stateMutability": "view",
      "type": "function"
    },
    {
      "inputs": [],
      "name": "owner",
      "outputs": [
        {
          "internalType": "address",
          "name": "",
          "type": "address"
        }
      ],
      "stateMutability": "view",
      "type": "function"
    },
    {
      "inputs": [
        {
          "internalType": "uint256",
          "name": "tokenId",
          "type": "uint256"
        }
      ],
      "name": "ownerOf",
      "outputs": [
        {
          "internalType": "address",
          "name": "",
          "type": "address"
        }
      ],
      "stateMutability": "view",
      "type": "function"
    },
    {
      "inputs": [],
      "name": "renounceOwnership",
      "outputs": [],
      "stateMutability": "nonpayable",
      "type": "function"
    },
    {
      "inputs": [],
      "name": "reserveNFTs",
      "outputs": [],
      "stateMutability": "nonpayable",
      "type": "function"
    },
    {
      "inputs": [
        {
          "internalType": "address",
          "name": "to",
          "type": "address"
        }
      ],
      "name": "safeMint",
      "outputs": [],
      "stateMutability": "nonpayable",
      "type": "function"
    },
    {
      "inputs": [
        {
          "internalType": "address",
          "name": "from",
          "type": "address"
        },
        {
          "internalType": "address",
          "name": "to",
          "type": "address"
        },
        {
          "internalType": "uint256",
          "name": "tokenId",
          "type": "uint256"
        }
      ],
      "name": "safeTransferFrom",
      "outputs": [],
      "stateMutability": "nonpayable",
      "type": "function"
    },
    {
      "inputs": [
        {
          "internalType": "address",
          "name": "from",
          "type": "address"
        },
        {
          "internalType": "address",
          "name": "to",
          "type": "address"
        },
        {
          "internalType": "uint256",
          "name": "tokenId",
          "type": "uint256"
        },
        {
          "internalType": "bytes",
          "name": "_data",
          "type": "bytes"
        }
      ],
      "name": "safeTransferFrom",
      "outputs": [],
      "stateMutability": "nonpayable",
      "type": "function"
    },
    {
      "inputs": [
        {
          "internalType": "address",
          "name": "operator",
          "type": "address"
        },
        {
          "internalType": "bool",
          "name": "approved",
          "type": "bool"
        }
      ],
      "name": "setApprovalForAll",
      "outputs": [],
      "stateMutability": "nonpayable",
      "type": "function"
    },
    {
      "inputs": [
        {
          "internalType": "string",
          "name": "_baseTokenURI",
          "type": "string"
        }
      ],
      "name": "setBaseURI",
      "outputs": [],
      "stateMutability": "nonpayable",
      "type": "function"
    },
    {
      "inputs": [
        {
          "internalType": "bytes4",
          "name": "interfaceId",
          "type": "bytes4"
        }
      ],
      "name": "supportsInterface",
      "outputs": [
        {
          "internalType": "bool",
          "name": "",
          "type": "bool"
        }
      ],
      "stateMutability": "view",
      "type": "function"
    },
    {
      "inputs": [],
      "name": "symbol",
      "outputs": [
        {
          "internalType": "string",
          "name": "",
          "type": "string"
        }
      ],
      "stateMutability": "view",
      "type": "function"
    },
    {
      "inputs": [
        {
          "internalType": "uint256",
          "name": "index",
          "type": "uint256"
        }
      ],
      "name": "tokenByIndex",
      "outputs": [
        {
          "internalType": "uint256",
          "name": "",
          "type": "uint256"
        }
      ],
      "stateMutability": "view",
      "type": "function"
    },
    {
      "inputs": [
        {
          "internalType": "address",
          "name": "owner",
          "type": "address"
        },
        {
          "internalType": "uint256",
          "name": "index",
          "type": "uint256"
        }
      ],
      "name": "tokenOfOwnerByIndex",
      "outputs": [
        {
          "internalType": "uint256",
          "name": "",
          "type": "uint256"
        }
      ],
      "stateMutability": "view",
      "type": "function"
    },
    {
      "inputs": [
        {
          "internalType": "uint256",
          "name": "tokenId",
          "type": "uint256"
        }
      ],
      "name": "tokenURI",
      "outputs": [
        {
          "internalType": "string",
          "name": "",
          "type": "string"
        }
      ],
      "stateMutability": "view",
      "type": "function"
    },
    {
      "inputs": [
        {
          "internalType": "address",
          "name": "_owner",
          "type": "address"
        }
      ],
      "name": "tokensOfOwner",
      "outputs": [
        {
          "internalType": "uint256[]",
          "name": "",
          "type": "uint256[]"
        }
      ],
      "stateMutability": "view",
      "type": "function"
    },
    {
      "inputs": [],
      "name": "totalSupply",
      "outputs": [
        {
          "internalType": "uint256",
          "name": "",
          "type": "uint256"
        }
      ],
      "stateMutability": "view",
      "type": "function"
    },
    {
      "inputs": [
        {
          "internalType": "address",
          "name": "from",
          "type": "address"
        },
        {
          "internalType": "address",
          "name": "to",
          "type": "address"
        },
        {
          "internalType": "uint256",
          "name": "tokenId",
          "type": "uint256"
        }
      ],
      "name": "transferFrom",
      "outputs": [],
      "stateMutability": "nonpayable",
      "type": "function"
    },
    {
      "inputs": [
        {
          "internalType": "address",
          "name": "newOwner",
          "type": "address"
        }
      ],
      "name": "transferOwnership",
      "outputs": [],
      "stateMutability": "nonpayable",
      "type": "function"
    },
    {
      "inputs": [],
      "name": "withdraw",
      "outputs": [],
      "stateMutability": "payable",
      "type": "function"
    }
  ],
  "bytecode": "0x60806040523480156200001157600080fd5b5060405162004bc438038062004bc48339818101604052810190620000379190620003d4565b6040518060400160405280600981526020017f426f6f6b766572736500000000000000000000000000000000000000000000008152506040518060400160405280600581526020017f424f4f4b530000000000000000000000000000000000000000000000000000008152508160009080519060200190620000bb929190620002b2565b508060019080519060200190620000d4929190620002b2565b505050620000f7620000eb6200010f60201b60201c565b6200011760201b60201c565b6200010881620001dd60201b60201c565b506200060c565b600033905090565b6000600a60009054906101000a900473ffffffffffffffffffffffffffffffffffffffff16905081600a60006101000a81548173ffffffffffffffffffffffffffffffffffffffff021916908373ffffffffffffffffffffffffffffffffffffffff1602179055508173ffffffffffffffffffffffffffffffffffffffff168173ffffffffffffffffffffffffffffffffffffffff167f8be0079c531659141344cd1fd0a4f28419497f9722a3daafe3b4186f6b6457e060405160405180910390a35050565b620001ed6200010f60201b60201c565b73ffffffffffffffffffffffffffffffffffffffff16620002136200028860201b60201c565b73ffffffffffffffffffffffffffffffffffffffff16146200026c576040517f08c379a0000000000000000000000000000000000000000000000000000000008152600401620002639062000440565b60405180910390fd5b80600c908051906020019062000284929190620002b2565b5050565b6000600a60009054906101000a900473ffffffffffffffffffffffffffffffffffffffff16905090565b828054620002c09062000508565b90600052602060002090601f016020900481019282620002e4576000855562000330565b82601f10620002ff57805160ff191683800117855562000330565b8280016001018555821562000330579182015b828111156200032f57825182559160200191906001019062000312565b5b5090506200033f919062000343565b5090565b5b808211156200035e57600081600090555060010162000344565b5090565b60006200037962000373846200048b565b62000462565b9050828152602081018484840111156200039257600080fd5b6200039f848285620004d2565b509392505050565b600082601f830112620003b957600080fd5b8151620003cb84826020860162000362565b91505092915050565b600060208284031215620003e757600080fd5b600082015167ffffffffffffffff8111156200040257600080fd5b6200041084828501620003a7565b91505092915050565b600062000428602083620004c1565b91506200043582620005e3565b602082019050919050565b600060208201905081810360008301526200045b8162000419565b9050919050565b60006200046e62000481565b90506200047c82826200053e565b919050565b6000604051905090565b600067ffffffffffffffff821115620004a957620004a8620005a3565b5b620004b482620005d2565b9050602081019050919050565b600082825260208201905092915050565b60005b83811015620004f2578082015181840152602081019050620004d5565b8381111562000502576000848401525b50505050565b600060028204905060018216806200052157607f821691505b6020821081141562000538576200053762000574565b5b50919050565b6200054982620005d2565b810181811067ffffffffffffffff821117156200056b576200056a620005a3565b5b80604052505050565b7f4e487b7100000000000000000000000000000000000000000000000000000000600052602260045260246000fd5b7f4e487b7100000000000000000000000000000000000000000000000000000000600052604160045260246000fd5b6000601f19601f8301169050919050565b7f4f776e61626c653a2063616c6c6572206973206e6f7420746865206f776e6572600082015250565b6145a8806200061c6000396000f3fe6080604052600436106101cd5760003560e01c80634f6ccce7116100f75780638da5cb5b11610095578063c87b56dd11610064578063c87b56dd14610646578063d547cfb714610683578063e985e9c5146106ae578063f2fde38b146106eb576101cd565b80638da5cb5b1461059e57806395d89b41146105c9578063a22cb465146105f4578063b88d4fde1461061d576101cd565b806370a08231116100d157806370a08231146104e2578063715018a61461051f5780638462151c146105365780638d859f3e14610573576101cd565b80634f6ccce71461043f57806355f804b31461047c5780636352211e146104a5576101cd565b806323b872dd1161016f5780633ccfd60b1161013e5780633ccfd60b146103ba57806340d097c3146103c457806342842e0e146103ed57806342966c6814610416576101cd565b806323b872dd1461030d5780632f745c591461033657806332cb6b0c146103735780633b4b13811461039e576101cd565b8063095ea7b3116101ab578063095ea7b31461027757806309d42b30146102a0578063144100c7146102cb57806318160ddd146102e2576101cd565b806301ffc9a7146101d257806306fdde031461020f578063081812fc1461023a575b600080fd5b3480156101de57600080fd5b506101f960048036038101906101f49190613030565b610714565b6040516102069190613691565b60405180910390f35b34801561021b57600080fd5b50610224610726565b60405161023191906136ac565b60405180910390f35b34801561024657600080fd5b50610261600480360381019061025c91906130c3565b6107b8565b60405161026e9190613608565b60405180910390f35b34801561028357600080fd5b5061029e60048036038101906102999190612ff4565b61083d565b005b3480156102ac57600080fd5b506102b5610955565b6040516102c291906139ee565b60405180910390f35b3480156102d757600080fd5b506102e061095a565b005b3480156102ee57600080fd5b506102f7610a65565b60405161030491906139ee565b60405180910390f35b34801561031957600080fd5b50610334600480360381019061032f9190612eee565b610a72565b005b34801561034257600080fd5b5061035d60048036038101906103589190612ff4565b610ad2565b60405161036a91906139ee565b60405180910390f35b34801561037f57600080fd5b50610388610b77565b60405161039591906139ee565b60405180910390f35b6103b860048036038101906103b391906130c3565b610b7c565b005b6103c2610cb7565b005b3480156103d057600080fd5b506103eb60048036038101906103e69190612e89565b610e2b565b005b3480156103f957600080fd5b50610414600480360381019061040f9190612eee565b610ecd565b005b34801561042257600080fd5b5061043d600480360381019061043891906130c3565b610eed565b005b34801561044b57600080fd5b50610466600480360381019061046191906130c3565b610f49565b60405161047391906139ee565b60405180910390f35b34801561048857600080fd5b506104a3600480360381019061049e9190613082565b610fe0565b005b3480156104b157600080fd5b506104cc60048036038101906104c791906130c3565b611076565b6040516104d99190613608565b60405180910390f35b3480156104ee57600080fd5b5061050960048036038101906105049190612e89565b611128565b60405161051691906139ee565b60405180910390f35b34801561052b57600080fd5b506105346111e0565b005b34801561054257600080fd5b5061055d60048036038101906105589190612e89565b611268565b60405161056a919061366f565b60405180910390f35b34801561057f57600080fd5b50610588611362565b60405161059591906139ee565b60405180910390f35b3480156105aa57600080fd5b506105b361136d565b6040516105c09190613608565b60405180910390f35b3480156105d557600080fd5b506105de611397565b6040516105eb91906136ac565b60405180910390f35b34801561060057600080fd5b5061061b60048036038101906106169190612fb8565b611429565b005b34801561062957600080fd5b50610644600480360381019061063f9190612f3d565b61143f565b005b34801561065257600080fd5b5061066d600480360381019061066891906130c3565b6114a1565b60405161067a91906136ac565b60405180910390f35b34801561068f57600080fd5b50610698611548565b6040516106a591906136ac565b60405180910390f35b3480156106ba57600080fd5b506106d560048036038101906106d09190612eb2565b6115d6565b6040516106e29190613691565b60405180910390f35b3480156106f757600080fd5b50610712600480360381019061070d9190612e89565b61166a565b005b600061071f82611762565b9050919050565b60606000805461073590613ce2565b80601f016020809104026020016040519081016040528092919081815260200182805461076190613ce2565b80156107ae5780601f10610783576101008083540402835291602001916107ae565b820191906000526020600020905b81548152906001019060200180831161079157829003601f168201915b5050505050905090565b60006107c3826117dc565b610802576040517f08c379a00000000000000000000000000000000000000000000000000000000081526004016107f9906138ee565b60405180910390fd5b6004600083815260200190815260200160002060009054906101000a900473ffffffffffffffffffffffffffffffffffffffff169050919050565b600061084882611076565b90508073ffffffffffffffffffffffffffffffffffffffff168373ffffffffffffffffffffffffffffffffffffffff1614156108b9576040517f08c379a00000000000000000000000000000000000000000000000000000000081526004016108b09061394e565b60405180910390fd5b8073ffffffffffffffffffffffffffffffffffffffff166108d8611848565b73ffffffffffffffffffffffffffffffffffffffff161480610907575061090681610901611848565b6115d6565b5b610946576040517f08c379a000000000000000000000000000000000000000000000000000000000815260040161093d9061382e565b60405180910390fd5b6109508383611850565b505050565b600381565b610962611848565b73ffffffffffffffffffffffffffffffffffffffff1661098061136d565b73ffffffffffffffffffffffffffffffffffffffff16146109d6576040517f08c379a00000000000000000000000000000000000000000000000000000000081526004016109cd9061390e565b60405180910390fd5b60006109e2600b611909565b905060146109fa60058361191790919063ffffffff16565b10610a3a576040517f08c379a0000000000000000000000000000000000000000000000000000000008152600401610a319061388e565b60405180910390fd5b60005b6005811015610a6157610a4e61192d565b8080610a5990613d45565b915050610a3d565b5050565b6000600880549050905090565b610a83610a7d611848565b82611952565b610ac2576040517f08c379a0000000000000000000000000000000000000000000000000000000008152600401610ab99061398e565b60405180910390fd5b610acd838383611a30565b505050565b6000610add83611128565b8210610b1e576040517f08c379a0000000000000000000000000000000000000000000000000000000008152600401610b15906136ce565b60405180910390fd5b600660008473ffffffffffffffffffffffffffffffffffffffff1673ffffffffffffffffffffffffffffffffffffffff168152602001908152602001600020600083815260200190815260200160002054905092915050565b601481565b6000610b88600b611909565b90506014610b9f838361191790919063ffffffff16565b1115610be0576040517f08c379a0000000000000000000000000000000000000000000000000000000008152600401610bd7906137ce565b60405180910390fd5b600082118015610bf1575060038211155b610c30576040517f08c379a0000000000000000000000000000000000000000000000000000000008152600401610c27906137ee565b60405180910390fd5b610c4a8266038d7ea4c68000611c9790919063ffffffff16565b341015610c8c576040517f08c379a0000000000000000000000000000000000000000000000000000000008152600401610c83906137ae565b60405180910390fd5b60005b82811015610cb257610c9f61192d565b8080610caa90613d45565b915050610c8f565b505050565b610cbf611848565b73ffffffffffffffffffffffffffffffffffffffff16610cdd61136d565b73ffffffffffffffffffffffffffffffffffffffff1614610d33576040517f08c379a0000000000000000000000000000000000000000000000000000000008152600401610d2a9061390e565b60405180910390fd5b600047905060008111610d7b576040517f08c379a0000000000000000000000000000000000000000000000000000000008152600401610d72906138ce565b60405180910390fd5b60003373ffffffffffffffffffffffffffffffffffffffff1682604051610da1906135f3565b60006040518083038185875af1925050503d8060008114610dde576040519150601f19603f3d011682016040523d82523d6000602084013e610de3565b606091505b5050905080610e27576040517f08c379a0000000000000000000000000000000000000000000000000000000008152600401610e1e9061396e565b60405180910390fd5b5050565b610e33611848565b73ffffffffffffffffffffffffffffffffffffffff16610e5161136d565b73ffffffffffffffffffffffffffffffffffffffff1614610ea7576040517f08c379a0000000000000000000000000000000000000000000000000000000008152600401610e9e9061390e565b60405180910390fd5b6000610eb3600b611909565b9050610ebf600b611cad565b610ec98282611cc3565b5050565b610ee88383836040518060200160405280600081525061143f565b505050565b610efe610ef8611848565b82611952565b610f3d576040517f08c379a0000000000000000000000000000000000000000000000000000000008152600401610f34906139ce565b60405180910390fd5b610f4681611ce1565b50565b6000610f53610a65565b8210610f94576040517f08c379a0000000000000000000000000000000000000000000000000000000008152600401610f8b906139ae565b60405180910390fd5b60088281548110610fce577f4e487b7100000000000000000000000000000000000000000000000000000000600052603260045260246000fd5b90600052602060002001549050919050565b610fe8611848565b73ffffffffffffffffffffffffffffffffffffffff1661100661136d565b73ffffffffffffffffffffffffffffffffffffffff161461105c576040517f08c379a00000000000000000000000000000000000000000000000000000000081526004016110539061390e565b60405180910390fd5b80600c9080519060200190611072929190612cad565b5050565b6000806002600084815260200190815260200160002060009054906101000a900473ffffffffffffffffffffffffffffffffffffffff169050600073ffffffffffffffffffffffffffffffffffffffff168173ffffffffffffffffffffffffffffffffffffffff16141561111f576040517f08c379a00000000000000000000000000000000000000000000000000000000081526004016111169061386e565b60405180910390fd5b80915050919050565b60008073ffffffffffffffffffffffffffffffffffffffff168273ffffffffffffffffffffffffffffffffffffffff161415611199576040517f08c379a00000000000000000000000000000000000000000000000000000000081526004016111909061384e565b60405180910390fd5b600360008373ffffffffffffffffffffffffffffffffffffffff1673ffffffffffffffffffffffffffffffffffffffff168152602001908152602001600020549050919050565b6111e8611848565b73ffffffffffffffffffffffffffffffffffffffff1661120661136d565b73ffffffffffffffffffffffffffffffffffffffff161461125c576040517f08c379a00000000000000000000000000000000000000000000000000000000081526004016112539061390e565b60405180910390fd5b6112666000611dfe565b565b6060600061127583611128565b905060008167ffffffffffffffff8111156112b9577f4e487b7100000000000000000000000000000000000000000000000000000000600052604160045260246000fd5b6040519080825280602002602001820160405280156112e75781602001602082028036833780820191505090505b50905060005b82811015611357576112ff8582610ad2565b828281518110611338577f4e487b7100000000000000000000000000000000000000000000000000000000600052603260045260246000fd5b602002602001018181525050808061134f90613d45565b9150506112ed565b508092505050919050565b66038d7ea4c6800081565b6000600a60009054906101000a900473ffffffffffffffffffffffffffffffffffffffff16905090565b6060600180546113a690613ce2565b80601f01602080910402602001604051908101604052809291908181526020018280546113d290613ce2565b801561141f5780601f106113f45761010080835404028352916020019161141f565b820191906000526020600020905b81548152906001019060200180831161140257829003601f168201915b5050505050905090565b61143b611434611848565b8383611ec4565b5050565b61145061144a611848565b83611952565b61148f576040517f08c379a00000000000000000000000000000000000000000000000000000000081526004016114869061398e565b60405180910390fd5b61149b84848484612031565b50505050565b60606114ac826117dc565b6114eb576040517f08c379a00000000000000000000000000000000000000000000000000000000081526004016114e29061392e565b60405180910390fd5b60006114f561208d565b905060008151116115155760405180602001604052806000815250611540565b8061151f8461211f565b6040516020016115309291906135cf565b6040516020818303038152906040525b915050919050565b600c805461155590613ce2565b80601f016020809104026020016040519081016040528092919081815260200182805461158190613ce2565b80156115ce5780601f106115a3576101008083540402835291602001916115ce565b820191906000526020600020905b8154815290600101906020018083116115b157829003601f168201915b505050505081565b6000600560008473ffffffffffffffffffffffffffffffffffffffff1673ffffffffffffffffffffffffffffffffffffffff16815260200190815260200160002060008373ffffffffffffffffffffffffffffffffffffffff1673ffffffffffffffffffffffffffffffffffffffff16815260200190815260200160002060009054906101000a900460ff16905092915050565b611672611848565b73ffffffffffffffffffffffffffffffffffffffff1661169061136d565b73ffffffffffffffffffffffffffffffffffffffff16146116e6576040517f08c379a00000000000000000000000000000000000000000000000000000000081526004016116dd9061390e565b60405180910390fd5b600073ffffffffffffffffffffffffffffffffffffffff168173ffffffffffffffffffffffffffffffffffffffff161415611756576040517f08c379a000000000000000000000000000000000000000000000000000000000815260040161174d9061370e565b60405180910390fd5b61175f81611dfe565b50565b60007f780e9d63000000000000000000000000000000000000000000000000000000007bffffffffffffffffffffffffffffffffffffffffffffffffffffffff1916827bffffffffffffffffffffffffffffffffffffffffffffffffffffffff191614806117d557506117d4826122cc565b5b9050919050565b60008073ffffffffffffffffffffffffffffffffffffffff166002600084815260200190815260200160002060009054906101000a900473ffffffffffffffffffffffffffffffffffffffff1673ffffffffffffffffffffffffffffffffffffffff1614159050919050565b600033905090565b816004600083815260200190815260200160002060006101000a81548173ffffffffffffffffffffffffffffffffffffffff021916908373ffffffffffffffffffffffffffffffffffffffff160217905550808273ffffffffffffffffffffffffffffffffffffffff166118c383611076565b73ffffffffffffffffffffffffffffffffffffffff167f8c5be1e5ebec7d5bd14f71427d1e84f3dd0314c0f7b2291e5b200ac8c7c3b92560405160405180910390a45050565b600081600001549050919050565b600081836119259190613b17565b905092915050565b6000611939600b611909565b90506119453382611cc3565b61194f600b611cad565b50565b600061195d826117dc565b61199c576040517f08c379a00000000000000000000000000000000000000000000000000000000081526004016119939061380e565b60405180910390fd5b60006119a783611076565b90508073ffffffffffffffffffffffffffffffffffffffff168473ffffffffffffffffffffffffffffffffffffffff161480611a1657508373ffffffffffffffffffffffffffffffffffffffff166119fe846107b8565b73ffffffffffffffffffffffffffffffffffffffff16145b80611a275750611a2681856115d6565b5b91505092915050565b8273ffffffffffffffffffffffffffffffffffffffff16611a5082611076565b73ffffffffffffffffffffffffffffffffffffffff1614611aa6576040517f08c379a0000000000000000000000000000000000000000000000000000000008152600401611a9d9061372e565b60405180910390fd5b600073ffffffffffffffffffffffffffffffffffffffff168273ffffffffffffffffffffffffffffffffffffffff161415611b16576040517f08c379a0000000000000000000000000000000000000000000000000000000008152600401611b0d9061376e565b60405180910390fd5b611b218383836123ae565b611b2c600082611850565b6001600360008573ffffffffffffffffffffffffffffffffffffffff1673ffffffffffffffffffffffffffffffffffffffff1681526020019081526020016000206000828254611b7c9190613bf8565b925050819055506001600360008473ffffffffffffffffffffffffffffffffffffffff1673ffffffffffffffffffffffffffffffffffffffff1681526020019081526020016000206000828254611bd39190613b17565b92505081905550816002600083815260200190815260200160002060006101000a81548173ffffffffffffffffffffffffffffffffffffffff021916908373ffffffffffffffffffffffffffffffffffffffff160217905550808273ffffffffffffffffffffffffffffffffffffffff168473ffffffffffffffffffffffffffffffffffffffff167fddf252ad1be2c89b69c2b068fc378daa952ba7f163c4a11628f55a4df523b3ef60405160405180910390a4611c928383836123be565b505050565b60008183611ca59190613b9e565b905092915050565b6001816000016000828254019250508190555050565b611cdd8282604051806020016040528060008152506123c3565b5050565b6000611cec82611076565b9050611cfa816000846123ae565b611d05600083611850565b6001600360008373ffffffffffffffffffffffffffffffffffffffff1673ffffffffffffffffffffffffffffffffffffffff1681526020019081526020016000206000828254611d559190613bf8565b925050819055506002600083815260200190815260200160002060006101000a81549073ffffffffffffffffffffffffffffffffffffffff021916905581600073ffffffffffffffffffffffffffffffffffffffff168273ffffffffffffffffffffffffffffffffffffffff167fddf252ad1be2c89b69c2b068fc378daa952ba7f163c4a11628f55a4df523b3ef60405160405180910390a4611dfa816000846123be565b5050565b6000600a60009054906101000a900473ffffffffffffffffffffffffffffffffffffffff16905081600a60006101000a81548173ffffffffffffffffffffffffffffffffffffffff021916908373ffffffffffffffffffffffffffffffffffffffff1602179055508173ffffffffffffffffffffffffffffffffffffffff168173ffffffffffffffffffffffffffffffffffffffff167f8be0079c531659141344cd1fd0a4f28419497f9722a3daafe3b4186f6b6457e060405160405180910390a35050565b8173ffffffffffffffffffffffffffffffffffffffff168373ffffffffffffffffffffffffffffffffffffffff161415611f33576040517f08c379a0000000000000000000000000000000000000000000000000000000008152600401611f2a9061378e565b60405180910390fd5b80600560008573ffffffffffffffffffffffffffffffffffffffff1673ffffffffffffffffffffffffffffffffffffffff16815260200190815260200160002060008473ffffffffffffffffffffffffffffffffffffffff1673ffffffffffffffffffffffffffffffffffffffff16815260200190815260200160002060006101000a81548160ff0219169083151502179055508173ffffffffffffffffffffffffffffffffffffffff168373ffffffffffffffffffffffffffffffffffffffff167f17307eab39ab6107e8899845ad3d59bd9653f200f220920489ca2b5937696c31836040516120249190613691565b60405180910390a3505050565b61203c848484611a30565b6120488484848461241e565b612087576040517f08c379a000000000000000000000000000000000000000000000000000000000815260040161207e906136ee565b60405180910390fd5b50505050565b6060600c805461209c90613ce2565b80601f01602080910402602001604051908101604052809291908181526020018280546120c890613ce2565b80156121155780601f106120ea57610100808354040283529160200191612115565b820191906000526020600020905b8154815290600101906020018083116120f857829003601f168201915b5050505050905090565b60606000821415612167576040518060400160405280600181526020017f300000000000000000000000000000000000000000000000000000000000000081525090506122c7565b600082905060005b6000821461219957808061218290613d45565b915050600a826121929190613b6d565b915061216f565b60008167ffffffffffffffff8111156121db577f4e487b7100000000000000000000000000000000000000000000000000000000600052604160045260246000fd5b6040519080825280601f01601f19166020018201604052801561220d5781602001600182028036833780820191505090505b5090505b600085146122c0576001826122269190613bf8565b9150600a856122359190613d8e565b60306122419190613b17565b60f81b81838151811061227d577f4e487b7100000000000000000000000000000000000000000000000000000000600052603260045260246000fd5b60200101907effffffffffffffffffffffffffffffffffffffffffffffffffffffffffffff1916908160001a905350600a856122b99190613b6d565b9450612211565b8093505050505b919050565b60007f80ac58cd000000000000000000000000000000000000000000000000000000007bffffffffffffffffffffffffffffffffffffffffffffffffffffffff1916827bffffffffffffffffffffffffffffffffffffffffffffffffffffffff1916148061239757507f5b5e139f000000000000000000000000000000000000000000000000000000007bffffffffffffffffffffffffffffffffffffffffffffffffffffffff1916827bffffffffffffffffffffffffffffffffffffffffffffffffffffffff1916145b806123a757506123a6826125b5565b5b9050919050565b6123b983838361261f565b505050565b505050565b6123cd8383612733565b6123da600084848461241e565b612419576040517f08c379a0000000000000000000000000000000000000000000000000000000008152600401612410906136ee565b60405180910390fd5b505050565b600061243f8473ffffffffffffffffffffffffffffffffffffffff1661290d565b156125a8578373ffffffffffffffffffffffffffffffffffffffff1663150b7a02612468611848565b8786866040518563ffffffff1660e01b815260040161248a9493929190613623565b602060405180830381600087803b1580156124a457600080fd5b505af19250505080156124d557506040513d601f19601f820116820180604052508101906124d29190613059565b60015b612558573d8060008114612505576040519150601f19603f3d011682016040523d82523d6000602084013e61250a565b606091505b50600081511415612550576040517f08c379a0000000000000000000000000000000000000000000000000000000008152600401612547906136ee565b60405180910390fd5b805181602001fd5b63150b7a0260e01b7bffffffffffffffffffffffffffffffffffffffffffffffffffffffff1916817bffffffffffffffffffffffffffffffffffffffffffffffffffffffff1916149150506125ad565b600190505b949350505050565b60007f01ffc9a7000000000000000000000000000000000000000000000000000000007bffffffffffffffffffffffffffffffffffffffffffffffffffffffff1916827bffffffffffffffffffffffffffffffffffffffffffffffffffffffff1916149050919050565b61262a838383612930565b600073ffffffffffffffffffffffffffffffffffffffff168373ffffffffffffffffffffffffffffffffffffffff16141561266d5761266881612935565b6126ac565b8173ffffffffffffffffffffffffffffffffffffffff168373ffffffffffffffffffffffffffffffffffffffff16146126ab576126aa838261297e565b5b5b600073ffffffffffffffffffffffffffffffffffffffff168273ffffffffffffffffffffffffffffffffffffffff1614156126ef576126ea81612aeb565b61272e565b8273ffffffffffffffffffffffffffffffffffffffff168273ffffffffffffffffffffffffffffffffffffffff161461272d5761272c8282612c2e565b5b5b505050565b600073ffffffffffffffffffffffffffffffffffffffff168273ffffffffffffffffffffffffffffffffffffffff1614156127a3576040517f08c379a000000000000000000000000000000000000000000000000000000000815260040161279a906138ae565b60405180910390fd5b6127ac816117dc565b156127ec576040517f08c379a00000000000000000000000000000000000000000000000000000000081526004016127e39061374e565b60405180910390fd5b6127f8600083836123ae565b6001600360008473ffffffffffffffffffffffffffffffffffffffff1673ffffffffffffffffffffffffffffffffffffffff16815260200190815260200160002060008282546128489190613b17565b92505081905550816002600083815260200190815260200160002060006101000a81548173ffffffffffffffffffffffffffffffffffffffff021916908373ffffffffffffffffffffffffffffffffffffffff160217905550808273ffffffffffffffffffffffffffffffffffffffff16600073ffffffffffffffffffffffffffffffffffffffff167fddf252ad1be2c89b69c2b068fc378daa952ba7f163c4a11628f55a4df523b3ef60405160405180910390a4612909600083836123be565b5050565b6000808273ffffffffffffffffffffffffffffffffffffffff163b119050919050565b505050565b6008805490506009600083815260200190815260200160002081905550600881908060018154018082558091505060019003906000526020600020016000909190919091505550565b6000600161298b84611128565b6129959190613bf8565b9050600060076000848152602001908152602001600020549050818114612a7a576000600660008673ffffffffffffffffffffffffffffffffffffffff1673ffffffffffffffffffffffffffffffffffffffff168152602001908152602001600020600084815260200190815260200160002054905080600660008773ffffffffffffffffffffffffffffffffffffffff1673ffffffffffffffffffffffffffffffffffffffff168152602001908152602001600020600084815260200190815260200160002081905550816007600083815260200190815260200160002081905550505b6007600084815260200190815260200160002060009055600660008573ffffffffffffffffffffffffffffffffffffffff1673ffffffffffffffffffffffffffffffffffffffff16815260200190815260200160002060008381526020019081526020016000206000905550505050565b60006001600880549050612aff9190613bf8565b9050600060096000848152602001908152602001600020549050600060088381548110612b55577f4e487b7100000000000000000000000000000000000000000000000000000000600052603260045260246000fd5b906000526020600020015490508060088381548110612b9d577f4e487b7100000000000000000000000000000000000000000000000000000000600052603260045260246000fd5b906000526020600020018190555081600960008381526020019081526020016000208190555060096000858152602001908152602001600020600090556008805480612c12577f4e487b7100000000000000000000000000000000000000000000000000000000600052603160045260246000fd5b6001900381819060005260206000200160009055905550505050565b6000612c3983611128565b905081600660008573ffffffffffffffffffffffffffffffffffffffff1673ffffffffffffffffffffffffffffffffffffffff168152602001908152602001600020600083815260200190815260200160002081905550806007600084815260200190815260200160002081905550505050565b828054612cb990613ce2565b90600052602060002090601f016020900481019282612cdb5760008555612d22565b82601f10612cf457805160ff1916838001178555612d22565b82800160010185558215612d22579182015b82811115612d21578251825591602001919060010190612d06565b5b509050612d2f9190612d33565b5090565b5b80821115612d4c576000816000905550600101612d34565b5090565b6000612d63612d5e84613a2e565b613a09565b905082815260208101848484011115612d7b57600080fd5b612d86848285613ca0565b509392505050565b6000612da1612d9c84613a5f565b613a09565b905082815260208101848484011115612db957600080fd5b612dc4848285613ca0565b509392505050565b600081359050612ddb81614516565b92915050565b600081359050612df08161452d565b92915050565b600081359050612e0581614544565b92915050565b600081519050612e1a81614544565b92915050565b600082601f830112612e3157600080fd5b8135612e41848260208601612d50565b91505092915050565b600082601f830112612e5b57600080fd5b8135612e6b848260208601612d8e565b91505092915050565b600081359050612e838161455b565b92915050565b600060208284031215612e9b57600080fd5b6000612ea984828501612dcc565b91505092915050565b60008060408385031215612ec557600080fd5b6000612ed385828601612dcc565b9250506020612ee485828601612dcc565b9150509250929050565b600080600060608486031215612f0357600080fd5b6000612f1186828701612dcc565b9350506020612f2286828701612dcc565b9250506040612f3386828701612e74565b9150509250925092565b60008060008060808587031215612f5357600080fd5b6000612f6187828801612dcc565b9450506020612f7287828801612dcc565b9350506040612f8387828801612e74565b925050606085013567ffffffffffffffff811115612fa057600080fd5b612fac87828801612e20565b91505092959194509250565b60008060408385031215612fcb57600080fd5b6000612fd985828601612dcc565b9250506020612fea85828601612de1565b9150509250929050565b6000806040838503121561300757600080fd5b600061301585828601612dcc565b925050602061302685828601612e74565b9150509250929050565b60006020828403121561304257600080fd5b600061305084828501612df6565b91505092915050565b60006020828403121561306b57600080fd5b600061307984828501612e0b565b91505092915050565b60006020828403121561309457600080fd5b600082013567ffffffffffffffff8111156130ae57600080fd5b6130ba84828501612e4a565b91505092915050565b6000602082840312156130d557600080fd5b60006130e384828501612e74565b91505092915050565b60006130f883836135b1565b60208301905092915050565b61310d81613c2c565b82525050565b600061311e82613aa0565b6131288185613ace565b935061313383613a90565b8060005b8381101561316457815161314b88826130ec565b975061315683613ac1565b925050600181019050613137565b5085935050505092915050565b61317a81613c3e565b82525050565b600061318b82613aab565b6131958185613adf565b93506131a5818560208601613caf565b6131ae81613e7b565b840191505092915050565b60006131c482613ab6565b6131ce8185613afb565b93506131de818560208601613caf565b6131e781613e7b565b840191505092915050565b60006131fd82613ab6565b6132078185613b0c565b9350613217818560208601613caf565b80840191505092915050565b6000613230602b83613afb565b915061323b82613e8c565b604082019050919050565b6000613253603283613afb565b915061325e82613edb565b604082019050919050565b6000613276602683613afb565b915061328182613f2a565b604082019050919050565b6000613299602583613afb565b91506132a482613f79565b604082019050919050565b60006132bc601c83613afb565b91506132c782613fc8565b602082019050919050565b60006132df602483613afb565b91506132ea82613ff1565b604082019050919050565b6000613302601983613afb565b915061330d82614040565b602082019050919050565b6000613325602283613afb565b915061333082614069565b604082019050919050565b6000613348601583613afb565b9150613353826140b8565b602082019050919050565b600061336b602583613afb565b9150613376826140e1565b604082019050919050565b600061338e602c83613afb565b915061339982614130565b604082019050919050565b60006133b1603883613afb565b91506133bc8261417f565b604082019050919050565b60006133d4602a83613afb565b91506133df826141ce565b604082019050919050565b60006133f7602983613afb565b91506134028261421d565b604082019050919050565b600061341a600f83613afb565b91506134258261426c565b602082019050919050565b600061343d602083613afb565b915061344882614295565b602082019050919050565b6000613460601983613afb565b915061346b826142be565b602082019050919050565b6000613483602c83613afb565b915061348e826142e7565b604082019050919050565b60006134a6602083613afb565b91506134b182614336565b602082019050919050565b60006134c9602f83613afb565b91506134d48261435f565b604082019050919050565b60006134ec602183613afb565b91506134f7826143ae565b604082019050919050565b600061350f600083613af0565b915061351a826143fd565b600082019050919050565b6000613532601083613afb565b915061353d82614400565b602082019050919050565b6000613555603183613afb565b915061356082614429565b604082019050919050565b6000613578602c83613afb565b915061358382614478565b604082019050919050565b600061359b603083613afb565b91506135a6826144c7565b604082019050919050565b6135ba81613c96565b82525050565b6135c981613c96565b82525050565b60006135db82856131f2565b91506135e782846131f2565b91508190509392505050565b60006135fe82613502565b9150819050919050565b600060208201905061361d6000830184613104565b92915050565b60006080820190506136386000830187613104565b6136456020830186613104565b61365260408301856135c0565b81810360608301526136648184613180565b905095945050505050565b600060208201905081810360008301526136898184613113565b905092915050565b60006020820190506136a66000830184613171565b92915050565b600060208201905081810360008301526136c681846131b9565b905092915050565b600060208201905081810360008301526136e781613223565b9050919050565b6000602082019050818103600083015261370781613246565b9050919050565b6000602082019050818103600083015261372781613269565b9050919050565b600060208201905081810360008301526137478161328c565b9050919050565b60006020820190508181036000830152613767816132af565b9050919050565b60006020820190508181036000830152613787816132d2565b9050919050565b600060208201905081810360008301526137a7816132f5565b9050919050565b600060208201905081810360008301526137c781613318565b9050919050565b600060208201905081810360008301526137e78161333b565b9050919050565b600060208201905081810360008301526138078161335e565b9050919050565b6000602082019050818103600083015261382781613381565b9050919050565b60006020820190508181036000830152613847816133a4565b9050919050565b60006020820190508181036000830152613867816133c7565b9050919050565b60006020820190508181036000830152613887816133ea565b9050919050565b600060208201905081810360008301526138a78161340d565b9050919050565b600060208201905081810360008301526138c781613430565b9050919050565b600060208201905081810360008301526138e781613453565b9050919050565b6000602082019050818103600083015261390781613476565b9050919050565b6000602082019050818103600083015261392781613499565b9050919050565b60006020820190508181036000830152613947816134bc565b9050919050565b60006020820190508181036000830152613967816134df565b9050919050565b6000602082019050818103600083015261398781613525565b9050919050565b600060208201905081810360008301526139a781613548565b9050919050565b600060208201905081810360008301526139c78161356b565b9050919050565b600060208201905081810360008301526139e78161358e565b9050919050565b6000602082019050613a0360008301846135c0565b92915050565b6000613a13613a24565b9050613a1f8282613d14565b919050565b6000604051905090565b600067ffffffffffffffff821115613a4957613a48613e4c565b5b613a5282613e7b565b9050602081019050919050565b600067ffffffffffffffff821115613a7a57613a79613e4c565b5b613a8382613e7b565b9050602081019050919050565b6000819050602082019050919050565b600081519050919050565b600081519050919050565b600081519050919050565b6000602082019050919050565b600082825260208201905092915050565b600082825260208201905092915050565b600081905092915050565b600082825260208201905092915050565b600081905092915050565b6000613b2282613c96565b9150613b2d83613c96565b9250827fffffffffffffffffffffffffffffffffffffffffffffffffffffffffffffffff03821115613b6257613b61613dbf565b5b828201905092915050565b6000613b7882613c96565b9150613b8383613c96565b925082613b9357613b92613dee565b5b828204905092915050565b6000613ba982613c96565b9150613bb483613c96565b9250817fffffffffffffffffffffffffffffffffffffffffffffffffffffffffffffffff0483118215151615613bed57613bec613dbf565b5b828202905092915050565b6000613c0382613c96565b9150613c0e83613c96565b925082821015613c2157613c20613dbf565b5b828203905092915050565b6000613c3782613c76565b9050919050565b60008115159050919050565b60007fffffffff0000000000000000000000000000000000000000000000000000000082169050919050565b600073ffffffffffffffffffffffffffffffffffffffff82169050919050565b6000819050919050565b82818337600083830152505050565b60005b83811015613ccd578082015181840152602081019050613cb2565b83811115613cdc576000848401525b50505050565b60006002820490506001821680613cfa57607f821691505b60208210811415613d0e57613d0d613e1d565b5b50919050565b613d1d82613e7b565b810181811067ffffffffffffffff82111715613d3c57613d3b613e4c565b5b80604052505050565b6000613d5082613c96565b91507fffffffffffffffffffffffffffffffffffffffffffffffffffffffffffffffff821415613d8357613d82613dbf565b5b600182019050919050565b6000613d9982613c96565b9150613da483613c96565b925082613db457613db3613dee565b5b828206905092915050565b7f4e487b7100000000000000000000000000000000000000000000000000000000600052601160045260246000fd5b7f4e487b7100000000000000000000000000000000000000000000000000000000600052601260045260246000fd5b7f4e487b7100000000000000000000000000000000000000000000000000000000600052602260045260246000fd5b7f4e487b7100000000000000000000000000000000000000000000000000000000600052604160045260246000fd5b6000601f19601f8301169050919050565b7f455243373231456e756d657261626c653a206f776e657220696e646578206f7560008201527f74206f6620626f756e6473000000000000000000000000000000000000000000602082015250565b7f4552433732313a207472616e7366657220746f206e6f6e20455243373231526560008201527f63656976657220696d706c656d656e7465720000000000000000000000000000602082015250565b7f4f776e61626c653a206e6577206f776e657220697320746865207a65726f206160008201527f6464726573730000000000000000000000000000000000000000000000000000602082015250565b7f4552433732313a207472616e736665722066726f6d20696e636f72726563742060008201527f6f776e6572000000000000000000000000000000000000000000000000000000602082015250565b7f4552433732313a20746f6b656e20616c7265616479206d696e74656400000000600082015250565b7f4552433732313a207472616e7366657220746f20746865207a65726f2061646460008201527f7265737300000000000000000000000000000000000000000000000000000000602082015250565b7f4552433732313a20617070726f766520746f2063616c6c657200000000000000600082015250565b7f4e6f7420656e6f75676820657468657220746f207075726368617365204e465460008201527f732e000000000000000000000000000000000000000000000000000000000000602082015250565b7f4e6f7420656e6f756768204e465473206c656674210000000000000000000000600082015250565b7f43616e6e6f74206d696e7420737065636966696564206e756d626572206f662060008201527f4e4654732e000000000000000000000000000000000000000000000000000000602082015250565b7f4552433732313a206f70657261746f7220717565727920666f72206e6f6e657860008201527f697374656e7420746f6b656e0000000000000000000000000000000000000000602082015250565b7f4552433732313a20617070726f76652063616c6c6572206973206e6f74206f7760008201527f6e6572206e6f7220617070726f76656420666f7220616c6c0000000000000000602082015250565b7f4552433732313a2062616c616e636520717565727920666f7220746865207a6560008201527f726f206164647265737300000000000000000000000000000000000000000000602082015250565b7f4552433732313a206f776e657220717565727920666f72206e6f6e657869737460008201527f656e7420746f6b656e0000000000000000000000000000000000000000000000602082015250565b7f4e6f7420656e6f756768204e4654730000000000000000000000000000000000600082015250565b7f4552433732313a206d696e7420746f20746865207a65726f2061646472657373600082015250565b7f4e6f206574686572206c65667420746f20776974686472617700000000000000600082015250565b7f4552433732313a20617070726f76656420717565727920666f72206e6f6e657860008201527f697374656e7420746f6b656e0000000000000000000000000000000000000000602082015250565b7f4f776e61626c653a2063616c6c6572206973206e6f7420746865206f776e6572600082015250565b7f4552433732314d657461646174613a2055524920717565727920666f72206e6f60008201527f6e6578697374656e7420746f6b656e0000000000000000000000000000000000602082015250565b7f4552433732313a20617070726f76616c20746f2063757272656e74206f776e6560008201527f7200000000000000000000000000000000000000000000000000000000000000602082015250565b50565b7f5472616e73666572206661696c65642e00000000000000000000000000000000600082015250565b7f4552433732313a207472616e736665722063616c6c6572206973206e6f74206f60008201527f776e6572206e6f7220617070726f766564000000000000000000000000000000602082015250565b7f455243373231456e756d657261626c653a20676c6f62616c20696e646578206f60008201527f7574206f6620626f756e64730000000000000000000000000000000000000000602082015250565b7f4552433732314275726e61626c653a2063616c6c6572206973206e6f74206f7760008201527f6e6572206e6f7220617070726f76656400000000000000000000000000000000602082015250565b61451f81613c2c565b811461452a57600080fd5b50565b61453681613c3e565b811461454157600080fd5b50565b61454d81613c4a565b811461455857600080fd5b50565b61456481613c96565b811461456f57600080fd5b5056fea2646970667358221220ae9b1a8773d1cded1f100853caf486faea00e89a9f58a5975171bfa2502722d464736f6c63430008020033",
  "linkReferences": {},
  "deployedLinkReferences": {}
}